{
  "contractName": "AccessToken",
  "abi": [
    {
      "inputs": [],
      "stateMutability": "payable",
      "type": "constructor"
    },
    {
      "anonymous": false,
      "inputs": [
        {
          "indexed": true,
          "internalType": "address",
          "name": "owner",
          "type": "address"
        },
        {
          "indexed": true,
          "internalType": "address",
          "name": "spender",
          "type": "address"
        },
        {
          "indexed": false,
          "internalType": "uint256",
          "name": "value",
          "type": "uint256"
        }
      ],
      "name": "Approval",
      "type": "event"
    },
    {
      "anonymous": false,
      "inputs": [
        {
          "indexed": true,
          "internalType": "address",
          "name": "from",
          "type": "address"
        },
        {
          "indexed": false,
          "internalType": "address",
          "name": "to",
          "type": "address"
        }
      ],
      "name": "MinterChanged",
      "type": "event"
    },
    {
      "anonymous": false,
      "inputs": [
        {
          "indexed": true,
          "internalType": "address",
          "name": "from",
          "type": "address"
        },
        {
          "indexed": true,
          "internalType": "address",
          "name": "to",
          "type": "address"
        },
        {
          "indexed": false,
          "internalType": "uint256",
          "name": "value",
          "type": "uint256"
        }
      ],
      "name": "Transfer",
      "type": "event"
    },
    {
      "inputs": [],
      "name": "admin",
      "outputs": [
        {
          "internalType": "address",
          "name": "",
          "type": "address"
        }
      ],
      "stateMutability": "view",
      "type": "function"
    },
    {
      "inputs": [
        {
          "internalType": "address",
          "name": "owner",
          "type": "address"
        },
        {
          "internalType": "address",
          "name": "spender",
          "type": "address"
        }
      ],
      "name": "allowance",
      "outputs": [
        {
          "internalType": "uint256",
          "name": "",
          "type": "uint256"
        }
      ],
      "stateMutability": "view",
      "type": "function"
    },
    {
      "inputs": [
        {
          "internalType": "address",
          "name": "spender",
          "type": "address"
        },
        {
          "internalType": "uint256",
          "name": "amount",
          "type": "uint256"
        }
      ],
      "name": "approve",
      "outputs": [
        {
          "internalType": "bool",
          "name": "",
          "type": "bool"
        }
      ],
      "stateMutability": "nonpayable",
      "type": "function"
    },
    {
      "inputs": [
        {
          "internalType": "address",
          "name": "account",
          "type": "address"
        }
      ],
      "name": "balanceOf",
      "outputs": [
        {
          "internalType": "uint256",
          "name": "",
          "type": "uint256"
        }
      ],
      "stateMutability": "view",
      "type": "function"
    },
    {
      "inputs": [],
      "name": "decimals",
      "outputs": [
        {
          "internalType": "uint8",
          "name": "",
          "type": "uint8"
        }
      ],
      "stateMutability": "view",
      "type": "function"
    },
    {
      "inputs": [
        {
          "internalType": "address",
          "name": "spender",
          "type": "address"
        },
        {
          "internalType": "uint256",
          "name": "subtractedValue",
          "type": "uint256"
        }
      ],
      "name": "decreaseAllowance",
      "outputs": [
        {
          "internalType": "bool",
          "name": "",
          "type": "bool"
        }
      ],
      "stateMutability": "nonpayable",
      "type": "function"
    },
    {
      "inputs": [
        {
          "internalType": "address",
          "name": "spender",
          "type": "address"
        },
        {
          "internalType": "uint256",
          "name": "addedValue",
          "type": "uint256"
        }
      ],
      "name": "increaseAllowance",
      "outputs": [
        {
          "internalType": "bool",
          "name": "",
          "type": "bool"
        }
      ],
      "stateMutability": "nonpayable",
      "type": "function"
    },
    {
      "inputs": [],
      "name": "name",
      "outputs": [
        {
          "internalType": "string",
          "name": "",
          "type": "string"
        }
      ],
      "stateMutability": "view",
      "type": "function"
    },
    {
      "inputs": [],
      "name": "symbol",
      "outputs": [
        {
          "internalType": "string",
          "name": "",
          "type": "string"
        }
      ],
      "stateMutability": "view",
      "type": "function"
    },
    {
      "inputs": [],
      "name": "totalSupply",
      "outputs": [
        {
          "internalType": "uint256",
          "name": "",
          "type": "uint256"
        }
      ],
      "stateMutability": "view",
      "type": "function"
    },
    {
      "inputs": [
        {
          "internalType": "address",
          "name": "to",
          "type": "address"
        },
        {
          "internalType": "uint256",
          "name": "amount",
          "type": "uint256"
        }
      ],
      "name": "transfer",
      "outputs": [
        {
          "internalType": "bool",
          "name": "",
          "type": "bool"
        }
      ],
      "stateMutability": "nonpayable",
      "type": "function"
    },
    {
      "inputs": [
        {
          "internalType": "address",
          "name": "from",
          "type": "address"
        },
        {
          "internalType": "address",
          "name": "to",
          "type": "address"
        },
        {
          "internalType": "uint256",
          "name": "amount",
          "type": "uint256"
        }
      ],
      "name": "transferFrom",
      "outputs": [
        {
          "internalType": "bool",
          "name": "",
          "type": "bool"
        }
      ],
      "stateMutability": "nonpayable",
      "type": "function"
    },
    {
      "inputs": [
        {
          "internalType": "address",
          "name": "dBank",
          "type": "address"
        }
      ],
      "name": "passMinterRole",
      "outputs": [
        {
          "internalType": "bool",
          "name": "",
          "type": "bool"
        }
      ],
      "stateMutability": "nonpayable",
      "type": "function"
    },
    {
      "inputs": [
        {
          "internalType": "address",
          "name": "account",
          "type": "address"
        },
        {
          "internalType": "uint256",
          "name": "amount",
          "type": "uint256"
        }
      ],
      "name": "mint",
      "outputs": [],
      "stateMutability": "nonpayable",
      "type": "function"
    }
  ],
  "bytecode": "0x60806040526040518060400160405280600c81526020017f41636365737320546f6b656e00000000000000000000000000000000000000008152506040518060400160405280600381526020017f4143540000000000000000000000000000000000000000000000000000000000815250816003908051906020019062000088929190620000eb565b508060049080519060200190620000a1929190620000eb565b50505033600560006101000a81548173ffffffffffffffffffffffffffffffffffffffff021916908373ffffffffffffffffffffffffffffffffffffffff160217905550620001ff565b828054620000f990620001ca565b90600052602060002090601f0160209004810192826200011d576000855562000169565b82601f106200013857805160ff191683800117855562000169565b8280016001018555821562000169579182015b82811115620001685782518255916020019190600101906200014b565b5b5090506200017891906200017c565b5090565b5b80821115620001975760008160009055506001016200017d565b5090565b7f4e487b7100000000000000000000000000000000000000000000000000000000600052602260045260246000fd5b60006002820490506001821680620001e357607f821691505b602082108103620001f957620001f86200019b565b5b50919050565b6116f3806200020f6000396000f3fe608060405234801561001057600080fd5b50600436106100ea5760003560e01c806370a082311161008c578063a9059cbb11610066578063a9059cbb14610273578063d7fc5b15146102a3578063dd62ed3e146102d3578063f851a44014610303576100ea565b806370a08231146101f557806395d89b4114610225578063a457c2d714610243576100ea565b806323b872dd116100c857806323b872dd1461015b578063313ce5671461018b57806339509351146101a957806340c10f19146101d9576100ea565b806306fdde03146100ef578063095ea7b31461010d57806318160ddd1461013d575b600080fd5b6100f7610321565b6040516101049190610e86565b60405180910390f35b61012760048036038101906101229190610f41565b6103b3565b6040516101349190610f9c565b60405180910390f35b6101456103d6565b6040516101529190610fc6565b60405180910390f35b61017560048036038101906101709190610fe1565b6103e0565b6040516101829190610f9c565b60405180910390f35b61019361040f565b6040516101a09190611050565b60405180910390f35b6101c360048036038101906101be9190610f41565b610418565b6040516101d09190610f9c565b60405180910390f35b6101f360048036038101906101ee9190610f41565b61044f565b005b61020f600480360381019061020a919061106b565b61045d565b60405161021c9190610fc6565b60405180910390f35b61022d6104a5565b60405161023a9190610e86565b60405180910390f35b61025d60048036038101906102589190610f41565b610537565b60405161026a9190610f9c565b60405180910390f35b61028d60048036038101906102889190610f41565b6105ae565b60405161029a9190610f9c565b60405180910390f35b6102bd60048036038101906102b8919061106b565b6105d1565b6040516102ca9190610f9c565b60405180910390f35b6102ed60048036038101906102e89190611098565b6106fb565b6040516102fa9190610fc6565b60405180910390f35b61030b610782565b60405161031891906110e7565b60405180910390f35b60606003805461033090611131565b80601f016020809104026020016040519081016040528092919081815260200182805461035c90611131565b80156103a95780601f1061037e576101008083540402835291602001916103a9565b820191906000526020600020905b81548152906001019060200180831161038c57829003601f168201915b5050505050905090565b6000806103be6107a8565b90506103cb8185856107b0565b600191505092915050565b6000600254905090565b6000806103eb6107a8565b90506103f8858285610979565b610403858585610a05565b60019150509392505050565b60006012905090565b6000806104236107a8565b905061044481858561043585896106fb565b61043f9190611191565b6107b0565b600191505092915050565b6104598282610c84565b5050565b60008060008373ffffffffffffffffffffffffffffffffffffffff1673ffffffffffffffffffffffffffffffffffffffff168152602001908152602001600020549050919050565b6060600480546104b490611131565b80601f01602080910402602001604051908101604052809291908181526020018280546104e090611131565b801561052d5780601f106105025761010080835404028352916020019161052d565b820191906000526020600020905b81548152906001019060200180831161051057829003601f168201915b5050505050905090565b6000806105426107a8565b9050600061055082866106fb565b905083811015610595576040517f08c379a000000000000000000000000000000000000000000000000000000000815260040161058c90611259565b60405180910390fd5b6105a282868684036107b0565b60019250505092915050565b6000806105b96107a8565b90506105c6818585610a05565b600191505092915050565b6000600560009054906101000a900473ffffffffffffffffffffffffffffffffffffffff1673ffffffffffffffffffffffffffffffffffffffff163373ffffffffffffffffffffffffffffffffffffffff1614610663576040517f08c379a000000000000000000000000000000000000000000000000000000000815260040161065a906112eb565b60405180910390fd5b81600560006101000a81548173ffffffffffffffffffffffffffffffffffffffff021916908373ffffffffffffffffffffffffffffffffffffffff1602179055503373ffffffffffffffffffffffffffffffffffffffff167f3b0007eb941cf645526cbb3a4fdaecda9d28ce4843167d9263b536a1f1edc0f6836040516106ea91906110e7565b60405180910390a260019050919050565b6000600160008473ffffffffffffffffffffffffffffffffffffffff1673ffffffffffffffffffffffffffffffffffffffff16815260200190815260200160002060008373ffffffffffffffffffffffffffffffffffffffff1673ffffffffffffffffffffffffffffffffffffffff16815260200190815260200160002054905092915050565b600560009054906101000a900473ffffffffffffffffffffffffffffffffffffffff1681565b600033905090565b600073ffffffffffffffffffffffffffffffffffffffff168373ffffffffffffffffffffffffffffffffffffffff160361081f576040517f08c379a00000000000000000000000000000000000000000000000000000000081526004016108169061137d565b60405180910390fd5b600073ffffffffffffffffffffffffffffffffffffffff168273ffffffffffffffffffffffffffffffffffffffff160361088e576040517f08c379a00000000000000000000000000000000000000000000000000000000081526004016108859061140f565b60405180910390fd5b80600160008573ffffffffffffffffffffffffffffffffffffffff1673ffffffffffffffffffffffffffffffffffffffff16815260200190815260200160002060008473ffffffffffffffffffffffffffffffffffffffff1673ffffffffffffffffffffffffffffffffffffffff168152602001908152602001600020819055508173ffffffffffffffffffffffffffffffffffffffff168373ffffffffffffffffffffffffffffffffffffffff167f8c5be1e5ebec7d5bd14f71427d1e84f3dd0314c0f7b2291e5b200ac8c7c3b9258360405161096c9190610fc6565b60405180910390a3505050565b600061098584846106fb565b90507fffffffffffffffffffffffffffffffffffffffffffffffffffffffffffffffff81146109ff57818110156109f1576040517f08c379a00000000000000000000000000000000000000000000000000000000081526004016109e89061147b565b60405180910390fd5b6109fe84848484036107b0565b5b50505050565b600073ffffffffffffffffffffffffffffffffffffffff168373ffffffffffffffffffffffffffffffffffffffff1603610a74576040517f08c379a0000000000000000000000000000000000000000000000000000000008152600401610a6b9061150d565b60405180910390fd5b600073ffffffffffffffffffffffffffffffffffffffff168273ffffffffffffffffffffffffffffffffffffffff1603610ae3576040517f08c379a0000000000000000000000000000000000000000000000000000000008152600401610ada9061159f565b60405180910390fd5b610aee838383610de3565b60008060008573ffffffffffffffffffffffffffffffffffffffff1673ffffffffffffffffffffffffffffffffffffffff16815260200190815260200160002054905081811015610b74576040517f08c379a0000000000000000000000000000000000000000000000000000000008152600401610b6b90611631565b60405180910390fd5b8181036000808673ffffffffffffffffffffffffffffffffffffffff1673ffffffffffffffffffffffffffffffffffffffff16815260200190815260200160002081905550816000808573ffffffffffffffffffffffffffffffffffffffff1673ffffffffffffffffffffffffffffffffffffffff1681526020019081526020016000206000828254610c079190611191565b925050819055508273ffffffffffffffffffffffffffffffffffffffff168473ffffffffffffffffffffffffffffffffffffffff167fddf252ad1be2c89b69c2b068fc378daa952ba7f163c4a11628f55a4df523b3ef84604051610c6b9190610fc6565b60405180910390a3610c7e848484610de8565b50505050565b600073ffffffffffffffffffffffffffffffffffffffff168273ffffffffffffffffffffffffffffffffffffffff1603610cf3576040517f08c379a0000000000000000000000000000000000000000000000000000000008152600401610cea9061169d565b60405180910390fd5b610cff60008383610de3565b8060026000828254610d119190611191565b92505081905550806000808473ffffffffffffffffffffffffffffffffffffffff1673ffffffffffffffffffffffffffffffffffffffff1681526020019081526020016000206000828254610d669190611191565b925050819055508173ffffffffffffffffffffffffffffffffffffffff16600073ffffffffffffffffffffffffffffffffffffffff167fddf252ad1be2c89b69c2b068fc378daa952ba7f163c4a11628f55a4df523b3ef83604051610dcb9190610fc6565b60405180910390a3610ddf60008383610de8565b5050565b505050565b505050565b600081519050919050565b600082825260208201905092915050565b60005b83811015610e27578082015181840152602081019050610e0c565b83811115610e36576000848401525b50505050565b6000601f19601f8301169050919050565b6000610e5882610ded565b610e628185610df8565b9350610e72818560208601610e09565b610e7b81610e3c565b840191505092915050565b60006020820190508181036000830152610ea08184610e4d565b905092915050565b600080fd5b600073ffffffffffffffffffffffffffffffffffffffff82169050919050565b6000610ed882610ead565b9050919050565b610ee881610ecd565b8114610ef357600080fd5b50565b600081359050610f0581610edf565b92915050565b6000819050919050565b610f1e81610f0b565b8114610f2957600080fd5b50565b600081359050610f3b81610f15565b92915050565b60008060408385031215610f5857610f57610ea8565b5b6000610f6685828601610ef6565b9250506020610f7785828601610f2c565b9150509250929050565b60008115159050919050565b610f9681610f81565b82525050565b6000602082019050610fb16000830184610f8d565b92915050565b610fc081610f0b565b82525050565b6000602082019050610fdb6000830184610fb7565b92915050565b600080600060608486031215610ffa57610ff9610ea8565b5b600061100886828701610ef6565b935050602061101986828701610ef6565b925050604061102a86828701610f2c565b9150509250925092565b600060ff82169050919050565b61104a81611034565b82525050565b60006020820190506110656000830184611041565b92915050565b60006020828403121561108157611080610ea8565b5b600061108f84828501610ef6565b91505092915050565b600080604083850312156110af576110ae610ea8565b5b60006110bd85828601610ef6565b92505060206110ce85828601610ef6565b9150509250929050565b6110e181610ecd565b82525050565b60006020820190506110fc60008301846110d8565b92915050565b7f4e487b7100000000000000000000000000000000000000000000000000000000600052602260045260246000fd5b6000600282049050600182168061114957607f821691505b60208210810361115c5761115b611102565b5b50919050565b7f4e487b7100000000000000000000000000000000000000000000000000000000600052601160045260246000fd5b600061119c82610f0b565b91506111a783610f0b565b9250827fffffffffffffffffffffffffffffffffffffffffffffffffffffffffffffffff038211156111dc576111db611162565b5b828201905092915050565b7f45524332303a2064656372656173656420616c6c6f77616e63652062656c6f7760008201527f207a65726f000000000000000000000000000000000000000000000000000000602082015250565b6000611243602583610df8565b915061124e826111e7565b604082019050919050565b6000602082019050818103600083015261127281611236565b9050919050565b7f4572726f722c206f6e6c79206f776e65722063616e206368616e67652070617360008201527f73206d696e74657220726f6c6500000000000000000000000000000000000000602082015250565b60006112d5602d83610df8565b91506112e082611279565b604082019050919050565b60006020820190508181036000830152611304816112c8565b9050919050565b7f45524332303a20617070726f76652066726f6d20746865207a65726f2061646460008201527f7265737300000000000000000000000000000000000000000000000000000000602082015250565b6000611367602483610df8565b91506113728261130b565b604082019050919050565b600060208201905081810360008301526113968161135a565b9050919050565b7f45524332303a20617070726f766520746f20746865207a65726f20616464726560008201527f7373000000000000000000000000000000000000000000000000000000000000602082015250565b60006113f9602283610df8565b91506114048261139d565b604082019050919050565b60006020820190508181036000830152611428816113ec565b9050919050565b7f45524332303a20696e73756666696369656e7420616c6c6f77616e6365000000600082015250565b6000611465601d83610df8565b91506114708261142f565b602082019050919050565b6000602082019050818103600083015261149481611458565b9050919050565b7f45524332303a207472616e736665722066726f6d20746865207a65726f20616460008201527f6472657373000000000000000000000000000000000000000000000000000000602082015250565b60006114f7602583610df8565b91506115028261149b565b604082019050919050565b60006020820190508181036000830152611526816114ea565b9050919050565b7f45524332303a207472616e7366657220746f20746865207a65726f206164647260008201527f6573730000000000000000000000000000000000000000000000000000000000602082015250565b6000611589602383610df8565b91506115948261152d565b604082019050919050565b600060208201905081810360008301526115b88161157c565b9050919050565b7f45524332303a207472616e7366657220616d6f756e742065786365656473206260008201527f616c616e63650000000000000000000000000000000000000000000000000000602082015250565b600061161b602683610df8565b9150611626826115bf565b604082019050919050565b6000602082019050818103600083015261164a8161160e565b9050919050565b7f45524332303a206d696e7420746f20746865207a65726f206164647265737300600082015250565b6000611687601f83610df8565b915061169282611651565b602082019050919050565b600060208201905081810360008301526116b68161167a565b905091905056fea2646970667358221220a6c07eccabafd3f40a161bfa7e7722f7d172bb6df7d823200ba6abd5202234e864736f6c634300080d0033",
  "immutableReferences": {},
  "source": "// SPDX-License-Identifier: MIT\r\npragma solidity ^0.8.0;\r\n\r\nimport \"openzeppelin-solidity/contracts/token/ERC20/ERC20.sol\";\r\n\r\ncontract AccessToken is ERC20 {\r\n  address public admin;\r\n\r\n  event MinterChanged(address indexed from, address to);\r\n\r\n  constructor() payable ERC20(\"Access Token\", \"ACT\") {\r\n    admin = msg.sender; //only initially\r\n  }\r\n\r\n  function passMinterRole(address dBank) public returns (bool) {\r\n  \trequire(msg.sender==admin, 'Error, only owner can change pass minter role');\r\n  \tadmin = dBank;\r\n\r\n    emit MinterChanged(msg.sender, dBank);\r\n    return true;\r\n  }\r\n\r\n  function mint(address account, uint256 amount) public {\r\n\t\t_mint(account, amount);\r\n  }\r\n\r\n}",
  "sourcePath": "/Users/mithilanchan/Desktop/RBAC2/RBAC/front/src/contracts/AccessToken.sol",
  "compiler": {
    "name": "solc",
    "version": "0.8.13+commit.abaa5c0e.Emscripten.clang"
  },
  "schemaVersion": "3.4.7",
  "updatedAt": "2022-05-15T06:50:57.136Z",
  "devdoc": {
    "kind": "dev",
    "methods": {
      "allowance(address,address)": {
        "details": "See {IERC20-allowance}."
      },
      "approve(address,uint256)": {
        "details": "See {IERC20-approve}. NOTE: If `amount` is the maximum `uint256`, the allowance is not updated on `transferFrom`. This is semantically equivalent to an infinite approval. Requirements: - `spender` cannot be the zero address."
      },
      "balanceOf(address)": {
        "details": "See {IERC20-balanceOf}."
      },
      "decimals()": {
        "details": "Returns the number of decimals used to get its user representation. For example, if `decimals` equals `2`, a balance of `505` tokens should be displayed to a user as `5.05` (`505 / 10 ** 2`). Tokens usually opt for a value of 18, imitating the relationship between Ether and Wei. This is the value {ERC20} uses, unless this function is overridden; NOTE: This information is only used for _display_ purposes: it in no way affects any of the arithmetic of the contract, including {IERC20-balanceOf} and {IERC20-transfer}."
      },
      "decreaseAllowance(address,uint256)": {
        "details": "Atomically decreases the allowance granted to `spender` by the caller. This is an alternative to {approve} that can be used as a mitigation for problems described in {IERC20-approve}. Emits an {Approval} event indicating the updated allowance. Requirements: - `spender` cannot be the zero address. - `spender` must have allowance for the caller of at least `subtractedValue`."
      },
      "increaseAllowance(address,uint256)": {
        "details": "Atomically increases the allowance granted to `spender` by the caller. This is an alternative to {approve} that can be used as a mitigation for problems described in {IERC20-approve}. Emits an {Approval} event indicating the updated allowance. Requirements: - `spender` cannot be the zero address."
      },
      "name()": {
        "details": "Returns the name of the token."
      },
      "symbol()": {
        "details": "Returns the symbol of the token, usually a shorter version of the name."
      },
      "totalSupply()": {
        "details": "See {IERC20-totalSupply}."
      },
      "transfer(address,uint256)": {
        "details": "See {IERC20-transfer}. Requirements: - `to` cannot be the zero address. - the caller must have a balance of at least `amount`."
      },
      "transferFrom(address,address,uint256)": {
        "details": "See {IERC20-transferFrom}. Emits an {Approval} event indicating the updated allowance. This is not required by the EIP. See the note at the beginning of {ERC20}. NOTE: Does not update the allowance if the current allowance is the maximum `uint256`. Requirements: - `from` and `to` cannot be the zero address. - `from` must have a balance of at least `amount`. - the caller must have allowance for ``from``'s tokens of at least `amount`."
      }
    },
    "version": 1
  },
  "userdoc": {
    "kind": "user",
    "methods": {},
    "version": 1
  }
}