{
  "contractName": "AccessControl",
  "abi": [
    {
      "inputs": [
        {
          "internalType": "contract AccessToken",
          "name": "_token",
          "type": "address"
        }
      ],
      "stateMutability": "nonpayable",
      "type": "constructor"
    },
    {
      "anonymous": false,
      "inputs": [
        {
          "indexed": false,
          "internalType": "address",
          "name": "sender",
          "type": "address"
        },
        {
          "indexed": false,
          "internalType": "address",
          "name": "receiver",
          "type": "address"
        }
      ],
      "name": "KeySent",
      "type": "event"
    },
    {
      "inputs": [
        {
          "internalType": "address",
          "name": "_user",
          "type": "address"
        },
        {
          "internalType": "string",
          "name": "_roleName",
          "type": "string"
        }
      ],
      "name": "setRole",
      "outputs": [],
      "stateMutability": "nonpayable",
      "type": "function"
    },
    {
      "inputs": [
        {
          "internalType": "address",
          "name": "_verifier",
          "type": "address"
        }
      ],
      "name": "setVerifier",
      "outputs": [],
      "stateMutability": "nonpayable",
      "type": "function"
    },
    {
      "inputs": [
        {
          "internalType": "address",
          "name": "_receiver",
          "type": "address"
        }
      ],
      "name": "sendKey",
      "outputs": [],
      "stateMutability": "nonpayable",
      "type": "function"
    },
    {
      "inputs": [
        {
          "internalType": "address",
          "name": "_user",
          "type": "address"
        },
        {
          "internalType": "uint256",
          "name": "_amount",
          "type": "uint256"
        }
      ],
      "name": "sendToken",
      "outputs": [],
      "stateMutability": "nonpayable",
      "type": "function"
    },
    {
      "inputs": [
        {
          "internalType": "string",
          "name": "_roleName",
          "type": "string"
        },
        {
          "internalType": "uint256",
          "name": "_level",
          "type": "uint256"
        }
      ],
      "name": "setParameters",
      "outputs": [],
      "stateMutability": "nonpayable",
      "type": "function"
    },
    {
      "inputs": [
        {
          "internalType": "address",
          "name": "_user",
          "type": "address"
        }
      ],
      "name": "verifyToken",
      "outputs": [
        {
          "internalType": "uint256",
          "name": "",
          "type": "uint256"
        }
      ],
      "stateMutability": "view",
      "type": "function",
      "constant": true
    },
    {
      "inputs": [
        {
          "internalType": "address",
          "name": "_user",
          "type": "address"
        },
        {
          "internalType": "string",
          "name": "roleName",
          "type": "string"
        }
      ],
      "name": "verifyRole",
      "outputs": [
        {
          "internalType": "bool",
          "name": "",
          "type": "bool"
        }
      ],
      "stateMutability": "view",
      "type": "function",
      "constant": true
    },
    {
      "inputs": [],
      "name": "checkRequest",
      "outputs": [
        {
          "internalType": "address[]",
          "name": "",
          "type": "address[]"
        }
      ],
      "stateMutability": "view",
      "type": "function",
      "constant": true
    },
    {
      "inputs": [
        {
          "internalType": "address",
          "name": "_user",
          "type": "address"
        }
      ],
      "name": "requestKey",
      "outputs": [],
      "stateMutability": "nonpayable",
      "type": "function"
    }
  ],
  "bytecode": "0x60806040523480156200001157600080fd5b506040516200131f3803806200131f83398181016040528101906200003791906200013d565b336000806101000a81548173ffffffffffffffffffffffffffffffffffffffff021916908373ffffffffffffffffffffffffffffffffffffffff16021790555080600160006101000a81548173ffffffffffffffffffffffffffffffffffffffff021916908373ffffffffffffffffffffffffffffffffffffffff160217905550506200016f565b600080fd5b600073ffffffffffffffffffffffffffffffffffffffff82169050919050565b6000620000f182620000c4565b9050919050565b60006200010582620000e4565b9050919050565b6200011781620000f8565b81146200012357600080fd5b50565b60008151905062000137816200010c565b92915050565b600060208284031215620001565762000155620000bf565b5b6000620001668482850162000126565b91505092915050565b6111a0806200017f6000396000f3fe608060405234801561001057600080fd5b50600436106100935760003560e01c80634414e54d116100665780634414e54d14610132578063468a22dc1461014e5780635437988d1461016a578063b87184da14610186578063f832309b146101a257610093565b80630fb68521146100985780632ee85cfd146100b6578063412664ae146100e65780634130276b14610102575b600080fd5b6100a06101be565b6040516100ad9190610abd565b60405180910390f35b6100d060048036038101906100cb9190610c65565b610289565b6040516100dd9190610cdc565b60405180910390f35b61010060048036038101906100fb9190610d2d565b610333565b005b61011c60048036038101906101179190610d6d565b610434565b6040516101299190610da9565b60405180910390f35b61014c60048036038101906101479190610dc4565b610591565b005b61016860048036038101906101639190610d6d565b610633565b005b610184600480360381019061017f9190610d6d565b61066f565b005b6101a0600480360381019061019b9190610d6d565b610748565b005b6101bc60048036038101906101b79190610c65565b610877565b005b6060600560003373ffffffffffffffffffffffffffffffffffffffff1673ffffffffffffffffffffffffffffffffffffffff16815260200190815260200160002080548060200260200160405190810160405280929190818152602001828054801561027f57602002820191906000526020600020905b8160009054906101000a900473ffffffffffffffffffffffffffffffffffffffff1673ffffffffffffffffffffffffffffffffffffffff1681526020019060010190808311610235575b5050505050905090565b60008160405160200161029c9190610e9a565b60405160208183030381529060405280519060200120600360008573ffffffffffffffffffffffffffffffffffffffff1673ffffffffffffffffffffffffffffffffffffffff1681526020019081526020016000206000016040516020016103049190610fa5565b6040516020818303038152906040528051906020012003610328576001905061032d565b600090505b92915050565b600160009054906101000a900473ffffffffffffffffffffffffffffffffffffffff1673ffffffffffffffffffffffffffffffffffffffff166323b872dd3084670de0b6b3a7640000856103879190610feb565b6040518463ffffffff1660e01b81526004016103a593929190611054565b6020604051808303816000875af11580156103c4573d6000803e3d6000fd5b505050506040513d601f19601f820116820180604052508101906103e891906110b7565b5080600360008473ffffffffffffffffffffffffffffffffffffffff1673ffffffffffffffffffffffffffffffffffffffff168152602001908152602001600020600101819055505050565b6000600260008060009054906101000a900473ffffffffffffffffffffffffffffffffffffffff1673ffffffffffffffffffffffffffffffffffffffff1673ffffffffffffffffffffffffffffffffffffffff16815260200190815260200160002060009054906101000a900473ffffffffffffffffffffffffffffffffffffffff1673ffffffffffffffffffffffffffffffffffffffff163373ffffffffffffffffffffffffffffffffffffffff16146104ee57600080fd5b600160009054906101000a900473ffffffffffffffffffffffffffffffffffffffff1673ffffffffffffffffffffffffffffffffffffffff166370a08231836040518263ffffffff1660e01b815260040161054991906110e4565b602060405180830381865afa158015610566573d6000803e3d6000fd5b505050506040513d601f19601f8201168201806040525081019061058a9190611114565b9050919050565b81600460003373ffffffffffffffffffffffffffffffffffffffff1673ffffffffffffffffffffffffffffffffffffffff16815260200190815260200160002060000190805190602001906105e792919061092a565b5080600460003373ffffffffffffffffffffffffffffffffffffffff1673ffffffffffffffffffffffffffffffffffffffff168152602001908152602001600020600101819055505050565b7f3eb9738805f84f217050566cbe5ebd4a37f4aa24d36258033eaecfd502d503ef3382604051610664929190611141565b60405180910390a150565b60008054906101000a900473ffffffffffffffffffffffffffffffffffffffff1673ffffffffffffffffffffffffffffffffffffffff163373ffffffffffffffffffffffffffffffffffffffff16146106c757600080fd5b33600260008373ffffffffffffffffffffffffffffffffffffffff1673ffffffffffffffffffffffffffffffffffffffff16815260200190815260200160002060006101000a81548173ffffffffffffffffffffffffffffffffffffffff021916908373ffffffffffffffffffffffffffffffffffffffff16021790555050565b600460008273ffffffffffffffffffffffffffffffffffffffff1673ffffffffffffffffffffffffffffffffffffffff16815260200190815260200160002060010154600360003373ffffffffffffffffffffffffffffffffffffffff1673ffffffffffffffffffffffffffffffffffffffff168152602001908152602001600020600101541061087457600560008273ffffffffffffffffffffffffffffffffffffffff1673ffffffffffffffffffffffffffffffffffffffff168152602001908152602001600020339080600181540180825580915050600190039060005260206000200160009091909190916101000a81548173ffffffffffffffffffffffffffffffffffffffff021916908373ffffffffffffffffffffffffffffffffffffffff1602179055505b50565b60008054906101000a900473ffffffffffffffffffffffffffffffffffffffff1673ffffffffffffffffffffffffffffffffffffffff163373ffffffffffffffffffffffffffffffffffffffff16146108cf57600080fd5b80600360008473ffffffffffffffffffffffffffffffffffffffff1673ffffffffffffffffffffffffffffffffffffffff168152602001908152602001600020600001908051906020019061092592919061092a565b505050565b82805461093690610ee0565b90600052602060002090601f016020900481019282610958576000855561099f565b82601f1061097157805160ff191683800117855561099f565b8280016001018555821561099f579182015b8281111561099e578251825591602001919060010190610983565b5b5090506109ac91906109b0565b5090565b5b808211156109c95760008160009055506001016109b1565b5090565b600081519050919050565b600082825260208201905092915050565b6000819050602082019050919050565b600073ffffffffffffffffffffffffffffffffffffffff82169050919050565b6000610a24826109f9565b9050919050565b610a3481610a19565b82525050565b6000610a468383610a2b565b60208301905092915050565b6000602082019050919050565b6000610a6a826109cd565b610a7481856109d8565b9350610a7f836109e9565b8060005b83811015610ab0578151610a978882610a3a565b9750610aa283610a52565b925050600181019050610a83565b5085935050505092915050565b60006020820190508181036000830152610ad78184610a5f565b905092915050565b6000604051905090565b600080fd5b600080fd5b610afc81610a19565b8114610b0757600080fd5b50565b600081359050610b1981610af3565b92915050565b600080fd5b600080fd5b6000601f19601f8301169050919050565b7f4e487b7100000000000000000000000000000000000000000000000000000000600052604160045260246000fd5b610b7282610b29565b810181811067ffffffffffffffff82111715610b9157610b90610b3a565b5b80604052505050565b6000610ba4610adf565b9050610bb08282610b69565b919050565b600067ffffffffffffffff821115610bd057610bcf610b3a565b5b610bd982610b29565b9050602081019050919050565b82818337600083830152505050565b6000610c08610c0384610bb5565b610b9a565b905082815260208101848484011115610c2457610c23610b24565b5b610c2f848285610be6565b509392505050565b600082601f830112610c4c57610c4b610b1f565b5b8135610c5c848260208601610bf5565b91505092915050565b60008060408385031215610c7c57610c7b610ae9565b5b6000610c8a85828601610b0a565b925050602083013567ffffffffffffffff811115610cab57610caa610aee565b5b610cb785828601610c37565b9150509250929050565b60008115159050919050565b610cd681610cc1565b82525050565b6000602082019050610cf16000830184610ccd565b92915050565b6000819050919050565b610d0a81610cf7565b8114610d1557600080fd5b50565b600081359050610d2781610d01565b92915050565b60008060408385031215610d4457610d43610ae9565b5b6000610d5285828601610b0a565b9250506020610d6385828601610d18565b9150509250929050565b600060208284031215610d8357610d82610ae9565b5b6000610d9184828501610b0a565b91505092915050565b610da381610cf7565b82525050565b6000602082019050610dbe6000830184610d9a565b92915050565b60008060408385031215610ddb57610dda610ae9565b5b600083013567ffffffffffffffff811115610df957610df8610aee565b5b610e0585828601610c37565b9250506020610e1685828601610d18565b9150509250929050565b600081519050919050565b600081905092915050565b60005b83811015610e54578082015181840152602081019050610e39565b83811115610e63576000848401525b50505050565b6000610e7482610e20565b610e7e8185610e2b565b9350610e8e818560208601610e36565b80840191505092915050565b6000610ea68284610e69565b915081905092915050565b7f4e487b7100000000000000000000000000000000000000000000000000000000600052602260045260246000fd5b60006002820490506001821680610ef857607f821691505b602082108103610f0b57610f0a610eb1565b5b50919050565b60008190508160005260206000209050919050565b60008154610f3381610ee0565b610f3d8186610e2b565b94506001821660008114610f585760018114610f6957610f9c565b60ff19831686528186019350610f9c565b610f7285610f11565b60005b83811015610f9457815481890152600182019150602081019050610f75565b838801955050505b50505092915050565b6000610fb18284610f26565b915081905092915050565b7f4e487b7100000000000000000000000000000000000000000000000000000000600052601160045260246000fd5b6000610ff682610cf7565b915061100183610cf7565b9250817fffffffffffffffffffffffffffffffffffffffffffffffffffffffffffffffff048311821515161561103a57611039610fbc565b5b828202905092915050565b61104e81610a19565b82525050565b60006060820190506110696000830186611045565b6110766020830185611045565b6110836040830184610d9a565b949350505050565b61109481610cc1565b811461109f57600080fd5b50565b6000815190506110b18161108b565b92915050565b6000602082840312156110cd576110cc610ae9565b5b60006110db848285016110a2565b91505092915050565b60006020820190506110f96000830184611045565b92915050565b60008151905061110e81610d01565b92915050565b60006020828403121561112a57611129610ae9565b5b6000611138848285016110ff565b91505092915050565b60006040820190506111566000830185611045565b6111636020830184611045565b939250505056fea2646970667358221220f4494fa0785fcf89da9faaddcf2d7226468b514ea0504c96ce8b22a555f8f6eb64736f6c634300080d0033",
  "immutableReferences": {},
  "source": "// SPDX-License-Identifier: MIT\npragma solidity ^0.8.0;\n\n// Logs getting recorded - creating,deleting,editing,executing and reading(everthing gets recored,so if any changes happens everyone will know about it,no other can hack or change any access or attribute)\n\n// Validations - No  need of repetative validations(example of two organizations)\n\nimport \"./AccessToken.sol\";\n\ncontract AccessControl{\n    struct Roles{\n        string roleName;\n        uint level;\n    }\n\n    struct Parameters{\n        string roleName;\n        uint level;\n    }\n\n    address internal admin;\n    AccessToken private token;\n\n    mapping(address => address) internal verifier;\n    mapping(address => Roles) internal role;\n    mapping(address => Parameters) internal parameter;\n    mapping(address => address[]) internal keyRequest;\n\n    constructor(AccessToken _token){\n        admin = msg.sender;\n        token = _token;\n    }\n\n    event KeySent(address sender,address receiver);\n    modifier onlyAdmin{\n        require(msg.sender == admin);\n        _;\n    }\n\n    modifier onlyVerifier{\n        require(msg.sender == verifier[admin]);\n        _;\n    }\n\n    function setRole(address _user,string memory _roleName) public onlyAdmin{\n        role[_user].roleName = _roleName;                         \n    }\n\n    function setVerifier(address _verifier) public onlyAdmin{\n        verifier[_verifier] = msg.sender;\n    }\n\n    function sendKey(address _receiver) public{\n        emit KeySent(msg.sender,_receiver);\n    }\n\n    function sendToken(address _user,uint _amount) public{\n        token.transferFrom(address(this),_user,_amount * 1e18);\n        role[_user].level = _amount;\n    }\n\n    function setParameters(string memory _roleName,uint _level) public{\n        parameter[msg.sender].roleName = _roleName;\n        parameter[msg.sender].level = _level;\n    }\n\n    function verifyToken(address _user) public view onlyVerifier returns(uint){\n        return token.balanceOf(_user);\n    }\n\n    function verifyRole(address _user,string memory roleName) public view returns(bool){\n        if(keccak256(abi.encodePacked(role[_user].roleName)) == keccak256(abi.encodePacked(roleName))){\n            return true;\n        }\n        else {\n            return false;\n        }\n    }\n\n    function checkRequest() public view returns(address [] memory){\n        return keyRequest[msg.sender];\n    }\n\n    function requestKey(address _user) public{\n        if(role[msg.sender].level >= parameter[_user].level){\n            keyRequest[_user].push(msg.sender);\n        }\n    } \n}",
  "sourcePath": "/Users/mithilanchan/Desktop/RBAC2/RBAC/front/contracts/AccessControl.sol",
  "compiler": {
    "name": "solc",
    "version": "0.8.13+commit.abaa5c0e.Emscripten.clang"
  },
  "schemaVersion": "3.4.7",
  "updatedAt": "2022-05-14T20:12:59.540Z",
  "networkType": "ethereum",
  "devdoc": {
    "kind": "dev",
    "methods": {},
    "version": 1
  },
  "userdoc": {
    "kind": "user",
    "methods": {},
    "version": 1
  }
}